S01D000046616C6C5F446574656374696F6E5F4465766963652E73726563DB
S11300000C9466000C9483000C9483000C9483007D
S11300100C9483000C9483000C9483000C94830050
S11300200C9483000C9483000C9483000C94830040
S11300300C9483000C9483000C9483000C94830030
S11300400C9483000C9483000C9483000C94500350
S11300500C9483000C9483000C9483000C94830010
S11300600C9483000C9483000C94F2020C9483008F
S11300700C9483000C9483000C9483000C948300F0
S11300800C9483000C9483000C9483000C948300E0
S11300900C9483000C9483000C9483000C948300D0
S11300A00C9483000C9483000C9483000C948300C0
S11300B00C9483000C9483000C9483000C948300B0
S11300C00C9483000C9483000C94830011241FBEB1
S11300D0CFEFD8E0DEBFCDBF11E0A0E0B1E0ECE8A7
S11300E0FDE002C005900D92A839B107D9F721E0CF
S11300F0A8E9B1E001C01D92A93CB207E1F70E9452
S113010088000C94C4060C9400000E94D500089545
S1130110CF93DF9300D01F92CDB7DEB785E48983F8
S113012085E08A831B820E94850082E391E09F938D
S11301308F930E94E6032C988AEA0E94A6038E01FC
S11301400F5F1F4F7E0184E0E80EF11C0F900F90AB
S1130150F80181918F010E94A6030E151F05C1F7B6
S11301602C9A882349F08AE491E09F938F930E940C
S1130170E6030F900F9008C083E791E09F938F935D
S11301800E94E6030F900F90FFCF26982E98259A91
S11301902D98279A2F980E944303089552985A98AD
S11301A0539A5B980E94C103089583E0809365008D
S11301B08FEF809364009FE09093630091B111B836
S11301C092B182B994B114B895B185B997B117B801
S11301D098B188B99AB11AB89BB18BB98DB18078AE
S11301E08DB98EB18F678EB90F9A179A249A2C9A6B
S11301F03E983E98469A3F9A479840E060E881E6E8
S113020090E00E943C0313BE15BE0E94E4020E94CB
S1130210C5000E94CE00089580E98093BC00E8E9FF
S1130220F1E080818E7F808313868EE00895E8E973
S1130230F1E080818E7F8083138680E00895ECEB6B
S1130240F0E08081806A808381E00895ECEBF0E047
S11302508081806A808382E00895ECEBF0E0808105
S1130260806A808381E008958091B900887F883016
S113027041F08091B900887F803119F00E940C010F
S1130280089580919901880F81608093BB00ECEB05
S1130290F0E080818F7D80838081806880838AE024
S11302A008958091B900887F883041F08091B90029
S11302B0887F803119F00E940C0108958091990182
S11302C0880F8093BB00ECEBF0E080818F7D80830E
S11302D08081806880838BE00895ECEBF0E080817E
S11302E0806A808388E00895A8E9B1E082E01B96E3
S11302F08C931B971E96ED91FC911F975A968D91A6
S11303009C915B970995823019F0833021F006C0E7
S11303100E941F0108950E94260108950E940C0165
S1130320089580E98093BC00E8E9F1E080818E7F44
S1130330808382E083878EE00895ECEBF0E0808197
S113034080698083E8E9F1E080818E7F8083138671
S113035080E008958091B900887F803541F08091D4
S1130360B900887F883519F00E940C0108958091A6
S11303709C0190919D01029731F4ECEBF0E08081B7
S11303808F7B808305C0ECEBF0E080818064808308
S1130390E8E9F1E084819581019795838483892B31
S11303A089F0A281B3818091BB008C938281938177
S11303B0019693838283ECEBF0E0808180688083F4
S11303C084E00895A8E9B1E01296ED91FC911397A9
S11303D08091BB00808312968D919C911397019616
S11303E013969C938E9312978C9184608C931C9695
S11303F0ED91FC911D9758968D919C915997099573
S11304008250823018F40E946D0108950E949D016B
S11304100895ECEBF0E0808180698083E8E9F1E005
S113042080818E7F8083138680E00895A8E9B1E0FF
S113043082E01B968C931B975096ED91FC915197FB
S11304405C968D919C915D970995823019F083306B
S113045021F006C00E941F0108950E9426010895FC
S11304600E94090208958091B900887F803419F0B0
S11304700E941602089580919C0190919D0101971C
S113048039F4ECEBF0E080818F7B808384E0089585
S1130490ECEBF0E080818064808384E008958091B7
S11304A0B900887F883119F00E941602089583E00C
S11304B008958091B900887F803351F08091B9000C
S11304C0887F883429F08091B900887F8032C9F40C
S11304D0A8E9B1E05296ED91FC9153975E968D9107
S11304E09C915F970995823019F0833021F006C002
S11304F00E941F0108950E94260108950E94090286
S11305000895E8E9F1E0A281B381CD0101969383D6
S113051082838C918093BB00ACEBB0E08C918068BB
S11305208C9384819581019795838483892B11F41D
S113053085E0089583E008958091B900887F803331
S113054051F08091B900887F883429F08091B900F6
S1130550887F8032C9F4A8E9B1E05296ED91FC910C
S113056053975E968D919C915F970995823019F00F
S1130570833021F006C00E941F0108950E942601C5
S113058008950E9409020895A8E9B1E08C9184605D
S11305908C931C96ED91FC911D9758968D919C918E
S11305A059970995833039F0843041F0823049F409
S11305B00E941F0108950E94260108950E94590275
S11305C008950E9409020895E4E6F0E080818F779F
S11305D0808385E08093BC0080E28093B800109211
S11305E0B90008951F920F920FB60F9211242F9302
S11305F03F934F935F936F937F938F939F93AF93A7
S1130600BF93CF93DF93EF93FF938091B900887FDB
S1130610883379F08091B900887F883651F08091D1
S1130620B900887F883729F08091B900887F803BA2
S113063019F480E18093A201C8E9D1E0EA85F0E0F1
S1130640EE0FFF1FE050FF4F0190F081E02D099560
S11306508A87FF91EF91DF91CF91BF91AF919F91E5
S11306608F917F916F915F914F913F912F910F9057
S11306700FBE0F901F9018952FB7F894FC0160835C
S113068040832FBF0895E4E6F0E080818B7F808370
S113069080ED8CBDECEBF1E010821682158208959A
S11306A01F920F920FB60F9211242F933F934F93E3
S11306B05F936F937F938F939F93AF93BF93CF93E6
S11306C0DF93EF93FF939EB58091C001823011F1C7
S11306D0CCEBD1E0A981BA81FD019193FA83E9833E
S11306E0813019F011969C9101C090E0ECEBF1E09F
S11306F0838181508383882311F09EBD14C0ECEB69
S1130700F1E083E080830580F681E02D309759F095
S1130710099509C0ECEBF1E0A181B281CD0101960C
S113072092838183DFCFFF91EF91DF91CF91BF91CE
S1130730AF919F918F917F916F915F914F913F9175
S11307402F910F900FBE0F901F901895CF93DF93AA
S11307501F92CDB7DEB78983ECEBF1E09E012F5FEA
S11307603F4F3283218391E09383948392E090837B
S11307708EBD80818230F1F389810F90DF91CF911A
S11307800895E4E6F0E080818F7E80831092CD00AE
S113079080E18093CC0082E08093C80088E9809354
S11307A0C90084E291E09093C6018093C50180E082
S11307B00895E8ECF0E0908195FFFDCF8093CE00A2
S11307C008950E94D90380E090E00895A0E0B0E08D
S11307D0ECEEF3E00C949D06AE014B5F5F4FFA0123
S11307E061917191AF018091C5019091C6010E9400
S11307F0FC03E2E00C94B906ABE0B0E0E2E0F4E024
S11308000C948D066C017B018A01FC01178216820F
S1130810838181FFCCC1CE0101963C01F601938115
S1130820F70193FD859193FF81917F01882309F45A
S1130830BAC1853239F493FD859193FF81917F018B
S1130840853229F4B60190E00E94F305E7CF912C9C
S1130850212C312CFFE1F315D8F08B3279F038F4E8
S1130860803279F08332A1F4232D20611DC08D32B2
S113087061F0803369F4232D216016C0832D8260DA
S1130880382EE32DE4603E2E2AC0F32DF8601DC0FF
S113089037FC2DC020ED280F2A3040F08E32B9F4F9
S11308A036FC81C1232D2064322E19C036FE06C0C9
S11308B08AE0989E200D1124922E11C0EAE02E9E0B
S11308C0200D1124222EF32DF0623F2E08C08C3609
S11308D021F4832D8068382E02C0883641F4F70154
S11308E093FD859193FF81917F018111B3CF982F5F
S11308F09F7D9554933028F40C5F1F4F9FE3998399
S11309000DC0833631F0833771F0833509F059C057
S113091021C0F801808189830E5F1F4F882483944E
S1130920912C530113C02801F2E04F0E511CF80121
S1130930A080B18036FE03C0692D70E002C06FEF65
S11309407FEFC5010E94E8054C018201F32DFF777A
S11309503F2E16C0280122E0420E511CF801A0804F
S1130960B18036FE03C0692D70E002C06FEF7FEFE7
S1130970C5010E94DD054C01F32DF0683F2E820174
S113098033FC1BC0822D90E088169906B0F4B601A2
S113099080E290E00E94F3052A94F4CFF50137FC3D
S11309A0859137FE81915F01B60190E00E94F305C5
S11309B021102A9421E0821A91088114910471F77C
S11309C0E8C0843611F0893641F5F80137FE07C0D6
S11309D060817181828193810C5F1F4F08C06081A7
S11309E07181072E000C880B990B0E5F1F4FF32D9E
S11309F0FF763F2E97FF09C090958095709561957D
S1130A007F4F8F4F9F4FF0683F2E2AE030E0A301C5
S1130A100E942F06882E861845C0853731F4232D71
S1130A202F7EB22E2AE030E025C0932D997FB92E77
S1130A308F36C1F018F4883579F0B5C0803719F0D5
S1130A40883721F0B0C0E92FE061BE2EB4FE0DC09E
S1130A50FB2DF460BF2E09C034FE0AC0292F266086
S1130A60B22E06C028E030E005C020E130E002C02C
S1130A7020E132E0F801B7FE07C060817181828114
S1130A8093810C5F1F4F06C06081718180E090E00C
S1130A900E5F1F4FA3010E942F06882E8618FB2D80
S1130AA0FF773F2E36FE0DC0232D2E7FA22E8914F4
S1130AB058F434FE0BC032FC09C0832D8E7EA82E60
S1130AC005C0B82CA32C03C0B82C01C0B92CA4FEBB
S1130AD00FC0FE01E80DF11D8081803321F49A2DB1
S1130AE0997EA92E09C0A2FE06C0B394B39404C093
S1130AF08A2D867809F0B394A3FC11C0A0FE06C029
S1130B00B21488F4280C922C9B180EC0B21460F412
S1130B10B60180E290E00E94F305B394F7CFB214DB
S1130B2018F42B1802C0982C212CA4FE10C0B60176
S1130B3080E390E00E94F305A2FE17C0A1FC03C06D
S1130B4088E790E002C088E590E0B6010CC08A2DE9
S1130B50867859F0A1FE02C08BE201C080E2A7FCB6
S1130B608DE2B60190E00E94F305891438F4B601D1
S1130B7080E390E00E94F3059A94F7CF8A94F301FE
S1130B80E80DF11D8081B60190E00E94F30581100B
S1130B90F5CF222009F442CEB60180E290E00E9413
S1130BA0F3052A94F6CFF6018681978102C08FEF70
S1130BB09FEF2B96E2E10C94A906FC01059061508D
S1130BC070400110D8F7809590958E0F9F1F08955F
S1130BD0FC016150704001900110D8F78095909508
S1130BE08E0F9F1F08950F931F93CF93DF93FB01E5
S1130BF0238121FD03C08FEF9FEF2CC022FF16C07D
S1130C0046815781248135814217530744F4A081DA
S1130C10B1819D012F5F3F4F318320838C932681C7
S1130C2037812F5F3F4F3783268314C08B01EC013C
S1130C30FB010084F185E02D0995892BE1F6D801AB
S1130C4016968D919C911797019617969C938E9367
S1130C501697CE01DF91CF911F910F910895FA015C
S1130C60AA27283051F1203181F1E8946F936E7FE7
S1130C706E5F7F4F8F4F9F4FAF4FB1E03ED0B4E0D8
S1130C803CD0670F781F891F9A1FA11D680F791F19
S1130C908A1F911DA11D6A0F711D811D911DA11D2A
S1130CA020D009F468943F912AE0269F112430193A
S1130CB0305D3193DEF6CF010895462F4770405DD5
S1130CC04193B3E00FD0C9F7F6CF462F4F70405D84
S1130CD04A3318F0495D31FD4052419302D0A9F7DF
S1130CE0EACFB4E0A6959795879577956795BA95D9
S1130CF0C9F700976105710508959B01AC010A2E9F
S1130D0006945795479537952795BA95C9F7620F75
S1130D10731F841F951FA01D08952F923F924F9219
S1130D205F926F927F928F929F92AF92BF92CF9277
S1130D30DF92EF92FF920F931F93CF93DF93CDB780
S1130D40DEB7CA1BDB0B0FB6F894DEBF0FBECDBFF8
S1130D5009942A88398848885F846E847D848C84C9
S1130D609B84AA84B984C884DF80EE80FD800C81D2
S1130D701B81AA81B981CE0FD11D0FB6F894DEBFB5
S10F0D800FBECDBFED010895F894FFCF25
S1130D8C1701340151015902AA019C021F012601C9
S1130D9C2D01090233024F029D016D010C01160253
S1130DAC740191010000000200000000E103000046
S1130DBC00000D0A53656E642062797465203078E6
S1130DCC414120746F20535049006669727374203A
S1130DDC737069206578616D706C652074657374CB
S1130DEC207375636365737366756C6C79207275A7
S1130DFC6E2E006669727374207370692065786155
S1130E0C6D706C652074657374203A282077726F4A
S10B0E1C6E67203A2820000053
S9030000FC
